{
  "contractName": "DecentralBank",
  "abi": [
    {
      "inputs": [
        {
          "internalType": "contract RWD",
          "name": "_rwd",
          "type": "address"
        },
        {
          "internalType": "contract Tether",
          "name": "_tether",
          "type": "address"
        }
      ],
      "stateMutability": "nonpayable",
      "type": "constructor"
    },
    {
      "inputs": [
        {
          "internalType": "address",
          "name": "",
          "type": "address"
        }
      ],
      "name": "hasStacked",
      "outputs": [
        {
          "internalType": "bool",
          "name": "",
          "type": "bool"
        }
      ],
      "stateMutability": "view",
      "type": "function",
      "constant": true
    },
    {
      "inputs": [
        {
          "internalType": "address",
          "name": "",
          "type": "address"
        }
      ],
      "name": "isStaking",
      "outputs": [
        {
          "internalType": "bool",
          "name": "",
          "type": "bool"
        }
      ],
      "stateMutability": "view",
      "type": "function",
      "constant": true
    },
    {
      "inputs": [],
      "name": "name",
      "outputs": [
        {
          "internalType": "string",
          "name": "",
          "type": "string"
        }
      ],
      "stateMutability": "view",
      "type": "function",
      "constant": true
    },
    {
      "inputs": [],
      "name": "owner",
      "outputs": [
        {
          "internalType": "address",
          "name": "",
          "type": "address"
        }
      ],
      "stateMutability": "view",
      "type": "function",
      "constant": true
    },
    {
      "inputs": [],
      "name": "rwd",
      "outputs": [
        {
          "internalType": "contract RWD",
          "name": "",
          "type": "address"
        }
      ],
      "stateMutability": "view",
      "type": "function",
      "constant": true
    },
    {
      "inputs": [
        {
          "internalType": "uint256",
          "name": "",
          "type": "uint256"
        }
      ],
      "name": "stackers",
      "outputs": [
        {
          "internalType": "address",
          "name": "",
          "type": "address"
        }
      ],
      "stateMutability": "view",
      "type": "function",
      "constant": true
    },
    {
      "inputs": [
        {
          "internalType": "address",
          "name": "",
          "type": "address"
        }
      ],
      "name": "stackingBalance",
      "outputs": [
        {
          "internalType": "uint256",
          "name": "",
          "type": "uint256"
        }
      ],
      "stateMutability": "view",
      "type": "function",
      "constant": true
    },
    {
      "inputs": [],
      "name": "tether",
      "outputs": [
        {
          "internalType": "contract Tether",
          "name": "",
          "type": "address"
        }
      ],
      "stateMutability": "view",
      "type": "function",
      "constant": true
    },
    {
      "inputs": [
        {
          "internalType": "uint256",
          "name": "_amount",
          "type": "uint256"
        }
      ],
      "name": "depositTokens",
      "outputs": [],
      "stateMutability": "nonpayable",
      "type": "function"
    },
    {
      "inputs": [],
      "name": "unstackeToken",
      "outputs": [],
      "stateMutability": "nonpayable",
      "type": "function"
    },
    {
      "inputs": [],
      "name": "issueTokens",
      "outputs": [],
      "stateMutability": "nonpayable",
      "type": "function"
    }
  ],
  "bytecode": "0x60806040526040518060400160405280600e81526020017f446563656e7472616c2042616e6b000000000000000000000000000000000000815250600090816200004a9190620003c9565b503480156200005857600080fd5b50604051620017283803806200172883398181016040528101906200007e919062000573565b81600360006101000a81548173ffffffffffffffffffffffffffffffffffffffff021916908373ffffffffffffffffffffffffffffffffffffffff16021790555080600260006101000a81548173ffffffffffffffffffffffffffffffffffffffff021916908373ffffffffffffffffffffffffffffffffffffffff16021790555033600160006101000a81548173ffffffffffffffffffffffffffffffffffffffff021916908373ffffffffffffffffffffffffffffffffffffffff1602179055505050620005ba565b600081519050919050565b7f4e487b7100000000000000000000000000000000000000000000000000000000600052604160045260246000fd5b7f4e487b7100000000000000000000000000000000000000000000000000000000600052602260045260246000fd5b60006002820490506001821680620001cb57607f821691505b602082108103620001e157620001e062000183565b5b50919050565b60008190508160005260206000209050919050565b60006020601f8301049050919050565b60008160020a8302905092915050565b6000600883026200024e7fffffffffffffffffffffffffffffffffffffffffffffffffffffffffffffffff826200020c565b6200025a86836200020c565b95508019841693508086168417925050509392505050565b6000819050919050565b6000819050919050565b6000620002a7620002a16200029b8462000272565b6200027c565b62000272565b9050919050565b6000819050919050565b620002c38362000286565b620002db620002d282620002ae565b8484546200021c565b825550505050565b600090565b620002f2620002e3565b620002ff818484620002b8565b505050565b5b8181101562000327576200031b600082620002e8565b60018101905062000305565b5050565b601f82111562000376576200034081620001e7565b6200034b84620001fc565b810160208510156200035b578190505b620003736200036a85620001fc565b83018262000304565b50505b505050565b60008160020a8304905092915050565b60006200039e600019846008026200037b565b1980831691505092915050565b6000620003b983836200038b565b9150826002028217905092915050565b620003d48262000149565b67ffffffffffffffff811115620003f057620003ef62000154565b5b620003fc8254620001b2565b620004098282856200032b565b600060209050601f8311600181146200044157600084156200042c578287015190505b620004388582620003ab565b865550620004a8565b601f1984166200045186620001e7565b60005b828110156200047b5784890151825560018201915060208501945060208101905062000454565b868310156200049b578489015162000497601f8916826200038b565b8355505b6001600288020188555050505b505050505050565b600080fd5b600073ffffffffffffffffffffffffffffffffffffffff82169050919050565b6000620004e282620004b5565b9050919050565b6000620004f682620004d5565b9050919050565b6200050881620004e9565b81146200051457600080fd5b50565b6000815190506200052881620004fd565b92915050565b60006200053b82620004d5565b9050919050565b6200054d816200052e565b81146200055957600080fd5b50565b6000815190506200056d8162000542565b92915050565b600080604083850312156200058d576200058c620004b0565b5b60006200059d8582860162000517565b9250506020620005b0858286016200055c565b9150509250929050565b61115e80620005ca6000396000f3fe608060405234801561001057600080fd5b50600436106100c6576000357c01000000000000000000000000000000000000000000000000000000009004806360ab58521161008e57806360ab58521461015f5780636f49712b1461016957806378197289146101995780638da5cb5b146101c9578063dd49756e146101e7578063fb453e2314610203576100c6565b806306fdde03146100cb57806309f6f8fe146100e95780631a8972d3146100f357806332ac90cf146101115780635efc071a14610141575b600080fd5b6100d3610233565b6040516100e09190610b16565b60405180910390f35b6100f16102c1565b005b6100fb6104a5565b6040516101089190610bb7565b60405180910390f35b61012b60048036038101906101269190610c15565b6104cb565b6040516101389190610c5d565b60405180910390f35b6101496104eb565b6040516101569190610c99565b60405180910390f35b610167610511565b005b610183600480360381019061017e9190610c15565b610729565b6040516101909190610c5d565b60405180910390f35b6101b360048036038101906101ae9190610c15565b610749565b6040516101c09190610ccd565b60405180910390f35b6101d1610761565b6040516101de9190610cf7565b60405180910390f35b61020160048036038101906101fc9190610d3e565b610787565b005b61021d60048036038101906102189190610d3e565b610a47565b60405161022a9190610cf7565b60405180910390f35b6000805461024090610d9a565b80601f016020809104026020016040519081016040528092919081815260200182805461026c90610d9a565b80156102b95780601f1061028e576101008083540402835291602001916102b9565b820191906000526020600020905b81548152906001019060200180831161029c57829003601f168201915b505050505081565b6000600560003373ffffffffffffffffffffffffffffffffffffffff1673ffffffffffffffffffffffffffffffffffffffff16815260200190815260200160002054905060008111610348576040517f08c379a000000000000000000000000000000000000000000000000000000000815260040161033f90610e3d565b60405180910390fd5b600260009054906101000a900473ffffffffffffffffffffffffffffffffffffffff1673ffffffffffffffffffffffffffffffffffffffff1663a9059cbb33836040518363ffffffff167c01000000000000000000000000000000000000000000000000000000000281526004016103c1929190610e5d565b6020604051808303816000875af11580156103e0573d6000803e3d6000fd5b505050506040513d601f19601f820116820180604052508101906104049190610eb2565b506000600560003373ffffffffffffffffffffffffffffffffffffffff1673ffffffffffffffffffffffffffffffffffffffff168152602001908152602001600020819055506000600760003373ffffffffffffffffffffffffffffffffffffffff1673ffffffffffffffffffffffffffffffffffffffff16815260200190815260200160002060006101000a81548160ff02191690831515021790555050565b600360009054906101000a900473ffffffffffffffffffffffffffffffffffffffff1681565b60066020528060005260406000206000915054906101000a900460ff1681565b600260009054906101000a900473ffffffffffffffffffffffffffffffffffffffff1681565b600160009054906101000a900473ffffffffffffffffffffffffffffffffffffffff1673ffffffffffffffffffffffffffffffffffffffff163373ffffffffffffffffffffffffffffffffffffffff16146105a1576040517f08c379a000000000000000000000000000000000000000000000000000000000815260040161059890610f2b565b60405180910390fd5b6000600480549050905060005b81811015610725576000600482815481106105cc576105cb610f4b565b5b9060005260206000200160009054906101000a900473ffffffffffffffffffffffffffffffffffffffff1690506000600560008373ffffffffffffffffffffffffffffffffffffffff1673ffffffffffffffffffffffffffffffffffffffff168152602001908152602001600020549050600081111561071057600360009054906101000a900473ffffffffffffffffffffffffffffffffffffffff1673ffffffffffffffffffffffffffffffffffffffff1663a9059cbb836009846106929190610fd8565b6040518363ffffffff167c01000000000000000000000000000000000000000000000000000000000281526004016106cb929190610e5d565b6020604051808303816000875af11580156106ea573d6000803e3d6000fd5b505050506040513d601f19601f8201168201806040525081019061070e9190610eb2565b505b5050808061071d90611009565b9150506105ae565b5050565b60076020528060005260406000206000915054906101000a900460ff1681565b60056020528060005260406000206000915090505481565b600160009054906101000a900473ffffffffffffffffffffffffffffffffffffffff1681565b600081116107ca576040517f08c379a00000000000000000000000000000000000000000000000000000000081526004016107c19061109d565b60405180910390fd5b600260009054906101000a900473ffffffffffffffffffffffffffffffffffffffff1673ffffffffffffffffffffffffffffffffffffffff166323b872dd3330846040518463ffffffff167c0100000000000000000000000000000000000000000000000000000000028152600401610845939291906110bd565b6020604051808303816000875af1158015610864573d6000803e3d6000fd5b505050506040513d601f19601f820116820180604052508101906108889190610eb2565b5080600560003373ffffffffffffffffffffffffffffffffffffffff1673ffffffffffffffffffffffffffffffffffffffff16815260200190815260200160002060008282546108d891906110f4565b92505081905550600660003373ffffffffffffffffffffffffffffffffffffffff1673ffffffffffffffffffffffffffffffffffffffff16815260200190815260200160002060009054906101000a900460ff16610994576004339080600181540180825580915050600190039060005260206000200160009091909190916101000a81548173ffffffffffffffffffffffffffffffffffffffff021916908373ffffffffffffffffffffffffffffffffffffffff1602179055505b6001600760003373ffffffffffffffffffffffffffffffffffffffff1673ffffffffffffffffffffffffffffffffffffffff16815260200190815260200160002060006101000a81548160ff0219169083151502179055506001600660003373ffffffffffffffffffffffffffffffffffffffff1673ffffffffffffffffffffffffffffffffffffffff16815260200190815260200160002060006101000a81548160ff02191690831515021790555050565b60048181548110610a5757600080fd5b906000526020600020016000915054906101000a900473ffffffffffffffffffffffffffffffffffffffff1681565b600081519050919050565b600082825260208201905092915050565b60005b83811015610ac0578082015181840152602081019050610aa5565b60008484015250505050565b6000601f19601f8301169050919050565b6000610ae882610a86565b610af28185610a91565b9350610b02818560208601610aa2565b610b0b81610acc565b840191505092915050565b60006020820190508181036000830152610b308184610add565b905092915050565b600073ffffffffffffffffffffffffffffffffffffffff82169050919050565b6000819050919050565b6000610b7d610b78610b7384610b38565b610b58565b610b38565b9050919050565b6000610b8f82610b62565b9050919050565b6000610ba182610b84565b9050919050565b610bb181610b96565b82525050565b6000602082019050610bcc6000830184610ba8565b92915050565b600080fd5b6000610be282610b38565b9050919050565b610bf281610bd7565b8114610bfd57600080fd5b50565b600081359050610c0f81610be9565b92915050565b600060208284031215610c2b57610c2a610bd2565b5b6000610c3984828501610c00565b91505092915050565b60008115159050919050565b610c5781610c42565b82525050565b6000602082019050610c726000830184610c4e565b92915050565b6000610c8382610b84565b9050919050565b610c9381610c78565b82525050565b6000602082019050610cae6000830184610c8a565b92915050565b6000819050919050565b610cc781610cb4565b82525050565b6000602082019050610ce26000830184610cbe565b92915050565b610cf181610bd7565b82525050565b6000602082019050610d0c6000830184610ce8565b92915050565b610d1b81610cb4565b8114610d2657600080fd5b50565b600081359050610d3881610d12565b92915050565b600060208284031215610d5457610d53610bd2565b5b6000610d6284828501610d29565b91505092915050565b7f4e487b7100000000000000000000000000000000000000000000000000000000600052602260045260246000fd5b60006002820490506001821680610db257607f821691505b602082108103610dc557610dc4610d6b565b5b50919050565b7f7374616b696e672062616c616e63652063616e206e6f74206265206c6573732060008201527f7468616e207a65726f0000000000000000000000000000000000000000000000602082015250565b6000610e27602983610a91565b9150610e3282610dcb565b604082019050919050565b60006020820190508181036000830152610e5681610e1a565b9050919050565b6000604082019050610e726000830185610ce8565b610e7f6020830184610cbe565b9392505050565b610e8f81610c42565b8114610e9a57600080fd5b50565b600081519050610eac81610e86565b92915050565b600060208284031215610ec857610ec7610bd2565b5b6000610ed684828501610e9d565b91505092915050565b7f5468652063616c6c6572206d757374206265206f776e65722e00000000000000600082015250565b6000610f15601983610a91565b9150610f2082610edf565b602082019050919050565b60006020820190508181036000830152610f4481610f08565b9050919050565b7f4e487b7100000000000000000000000000000000000000000000000000000000600052603260045260246000fd5b7f4e487b7100000000000000000000000000000000000000000000000000000000600052601260045260246000fd5b7f4e487b7100000000000000000000000000000000000000000000000000000000600052601160045260246000fd5b6000610fe382610cb4565b9150610fee83610cb4565b925082610ffe57610ffd610f7a565b5b828204905092915050565b600061101482610cb4565b91507fffffffffffffffffffffffffffffffffffffffffffffffffffffffffffffffff820361104657611045610fa9565b5b600182019050919050565b7f416d6d6f756e742063616e206e6f742062652030000000000000000000000000600082015250565b6000611087601483610a91565b915061109282611051565b602082019050919050565b600060208201905081810360008301526110b68161107a565b9050919050565b60006060820190506110d26000830186610ce8565b6110df6020830185610ce8565b6110ec6040830184610cbe565b949350505050565b60006110ff82610cb4565b915061110a83610cb4565b925082820190508082111561112257611121610fa9565b5b9291505056fea26469706673582212206576feebff144efb371d098bd9ca4ba4ff431a62f0dacd46faf9bfb9677a229e64736f6c63430008140033",
  "immutableReferences": {},
  "source": "// SPDX-License-Identifier: MIT\npragma solidity >=0.4.22 <0.9.0;\n\nimport './RWD.sol';\nimport './Tether.sol';\n\ncontract DecentralBank {\n string public name = \"Decentral Bank\";\n address public owner;\n Tether public tether;\n RWD public rwd;\n\n address[] public stackers;\n mapping (address => uint) public stackingBalance;\n mapping(address => bool) public hasStacked;\n mapping(address => bool) public isStaking;\n\n constructor(RWD _rwd ,Tether _tether) {\n      rwd = _rwd;\n      tether = _tether;\n      owner = msg.sender;\n }\n\n // staking tokens\n \n function depositTokens(uint _amount) public {\n     require(_amount > 0, \"Ammount can not be 0\");\n\n     tether.transferFrom(msg.sender , address(this) , _amount);\n\n     stackingBalance[msg.sender] += _amount;\n\n     // update stacking balance\n     if(!hasStacked[msg.sender]){\n          stackers.push(msg.sender);\n     }\n\n     //update stacking\n     isStaking[msg.sender] = true;\n     hasStacked[msg.sender] = true;\n }\n\n// unstacking tokens\n\nfunction unstackeToken() public {\n    uint balance = stackingBalance[msg.sender];\n    require(balance > 0, \"staking balance can not be less than zero\");\n\n    // transfer the token to specified contract from our bank;\n\n    tether.transfer(msg.sender , balance);\n    stackingBalance[msg.sender] = 0;\n    isStaking[msg.sender] = false;\n }\n\n modifier onlyOwner() {\n     require(msg.sender == owner , \"The caller must be owner.\");\n     _;\n }\n\n// issue rewards\n  function issueTokens() public onlyOwner {\n     uint256 size = stackers.length;\n     for (uint256 index = 0; index < size; index++) {\n\n         address recipient = stackers[index];\n         uint balance = stackingBalance[recipient];\n         if(balance > 0) {\n           // reward for each recipient according to thier stacked balance.\n           // if stacked 20 token / 9 =  2.2 reward token\n           rwd.transfer(recipient , balance / 9);\n        }\n     }\n  }\n}",
  "sourcePath": "D:\\daff\\my-dapp\\contracts\\DecentralBank.sol",
  "compiler": {
    "name": "solc",
    "version": "0.8.20+commit.a1b79de6.Emscripten.clang"
  },
  "schemaVersion": "3.4.14",
  "updatedAt": "2023-06-11T15:36:00.297Z",
  "networkType": "ethereum",
  "devdoc": {
    "kind": "dev",
    "methods": {},
    "version": 1
  },
  "userdoc": {
    "kind": "user",
    "methods": {},
    "version": 1
  }
}