{
  "contractName": "RWD",
  "abi": [
    {
      "inputs": [],
      "stateMutability": "nonpayable",
      "type": "constructor"
    },
    {
      "anonymous": false,
      "inputs": [
        {
          "indexed": true,
          "internalType": "address",
          "name": "_owner",
          "type": "address"
        },
        {
          "indexed": true,
          "internalType": "address",
          "name": "_spender",
          "type": "address"
        },
        {
          "indexed": false,
          "internalType": "uint256",
          "name": "_value",
          "type": "uint256"
        }
      ],
      "name": "Approval",
      "type": "event"
    },
    {
      "anonymous": false,
      "inputs": [
        {
          "indexed": true,
          "internalType": "address",
          "name": "_from",
          "type": "address"
        },
        {
          "indexed": true,
          "internalType": "address",
          "name": "_to",
          "type": "address"
        },
        {
          "indexed": false,
          "internalType": "uint256",
          "name": "_value",
          "type": "uint256"
        }
      ],
      "name": "Transfer",
      "type": "event"
    },
    {
      "inputs": [
        {
          "internalType": "address",
          "name": "",
          "type": "address"
        },
        {
          "internalType": "address",
          "name": "",
          "type": "address"
        }
      ],
      "name": "allowance",
      "outputs": [
        {
          "internalType": "uint256",
          "name": "",
          "type": "uint256"
        }
      ],
      "stateMutability": "view",
      "type": "function",
      "constant": true
    },
    {
      "inputs": [
        {
          "internalType": "address",
          "name": "",
          "type": "address"
        }
      ],
      "name": "balanceOf",
      "outputs": [
        {
          "internalType": "uint256",
          "name": "",
          "type": "uint256"
        }
      ],
      "stateMutability": "view",
      "type": "function",
      "constant": true
    },
    {
      "inputs": [],
      "name": "decimals",
      "outputs": [
        {
          "internalType": "uint256",
          "name": "",
          "type": "uint256"
        }
      ],
      "stateMutability": "view",
      "type": "function",
      "constant": true
    },
    {
      "inputs": [],
      "name": "name",
      "outputs": [
        {
          "internalType": "string",
          "name": "",
          "type": "string"
        }
      ],
      "stateMutability": "view",
      "type": "function",
      "constant": true
    },
    {
      "inputs": [],
      "name": "symbole",
      "outputs": [
        {
          "internalType": "string",
          "name": "",
          "type": "string"
        }
      ],
      "stateMutability": "view",
      "type": "function",
      "constant": true
    },
    {
      "inputs": [],
      "name": "totalSupply",
      "outputs": [
        {
          "internalType": "uint256",
          "name": "",
          "type": "uint256"
        }
      ],
      "stateMutability": "view",
      "type": "function",
      "constant": true
    },
    {
      "inputs": [
        {
          "internalType": "address",
          "name": "_to",
          "type": "address"
        },
        {
          "internalType": "uint256",
          "name": "_value",
          "type": "uint256"
        }
      ],
      "name": "transfer",
      "outputs": [
        {
          "internalType": "bool",
          "name": "success",
          "type": "bool"
        }
      ],
      "stateMutability": "nonpayable",
      "type": "function"
    },
    {
      "inputs": [
        {
          "internalType": "address",
          "name": "_spender",
          "type": "address"
        },
        {
          "internalType": "uint256",
          "name": "_value",
          "type": "uint256"
        }
      ],
      "name": "approve",
      "outputs": [
        {
          "internalType": "bool",
          "name": "success",
          "type": "bool"
        }
      ],
      "stateMutability": "nonpayable",
      "type": "function"
    },
    {
      "inputs": [
        {
          "internalType": "address",
          "name": "_from",
          "type": "address"
        },
        {
          "internalType": "address",
          "name": "_to",
          "type": "address"
        },
        {
          "internalType": "uint256",
          "name": "_value",
          "type": "uint256"
        }
      ],
      "name": "transferFrom",
      "outputs": [
        {
          "internalType": "bool",
          "name": "success",
          "type": "bool"
        }
      ],
      "stateMutability": "nonpayable",
      "type": "function"
    }
  ],
  "bytecode": "0x60806040526040518060400160405280600c81526020017f52657761726420546f6b656e0000000000000000000000000000000000000000815250600090816200004a91906200037f565b506040518060400160405280600381526020017f5257440000000000000000000000000000000000000000000000000000000000815250600190816200009191906200037f565b5069d3c21bcecceda10000006002556012600355348015620000b257600080fd5b50600254600460003373ffffffffffffffffffffffffffffffffffffffff1673ffffffffffffffffffffffffffffffffffffffff1681526020019081526020016000208190555062000466565b600081519050919050565b7f4e487b7100000000000000000000000000000000000000000000000000000000600052604160045260246000fd5b7f4e487b7100000000000000000000000000000000000000000000000000000000600052602260045260246000fd5b600060028204905060018216806200018157607f821691505b60208210810362000197576200019662000139565b5b50919050565b60008190508160005260206000209050919050565b60006020601f8301049050919050565b60008160020a8302905092915050565b600060088302620002047fffffffffffffffffffffffffffffffffffffffffffffffffffffffffffffffff82620001c2565b620002108683620001c2565b95508019841693508086168417925050509392505050565b6000819050919050565b6000819050919050565b60006200025d62000257620002518462000228565b62000232565b62000228565b9050919050565b6000819050919050565b62000279836200023c565b62000291620002888262000264565b848454620001d2565b825550505050565b600090565b620002a862000299565b620002b58184846200026e565b505050565b5b81811015620002dd57620002d16000826200029e565b600181019050620002bb565b5050565b601f8211156200032c57620002f6816200019d565b6200030184620001b2565b8101602085101562000311578190505b620003296200032085620001b2565b830182620002ba565b50505b505050565b60008160020a8304905092915050565b6000620003546000198460080262000331565b1980831691505092915050565b60006200036f838362000341565b9150826002028217905092915050565b6200038a82620000ff565b67ffffffffffffffff811115620003a657620003a56200010a565b5b620003b2825462000168565b620003bf828285620002e1565b600060209050601f831160018114620003f75760008415620003e2578287015190505b620003ee858262000361565b8655506200045e565b601f19841662000407866200019d565b60005b8281101562000431578489015182556001820191506020850194506020810190506200040a565b868310156200045157848901516200044d601f89168262000341565b8355505b6001600288020188555050505b505050505050565b610cdd80620004766000396000f3fe608060405234801561001057600080fd5b50600436106100b0576000357c010000000000000000000000000000000000000000000000000000000090048063313ce56711610083578063313ce5671461015157806370a082311461016f578063a9059cbb1461019f578063dd62ed3e146101cf578063ed6968e7146101ff576100b0565b806306fdde03146100b5578063095ea7b3146100d357806318160ddd1461010357806323b872dd14610121575b600080fd5b6100bd61021d565b6040516100ca9190610929565b60405180910390f35b6100ed60048036038101906100e891906109e4565b6102ab565b6040516100fa9190610a3f565b60405180910390f35b61010b61039d565b6040516101189190610a69565b60405180910390f35b61013b60048036038101906101369190610a84565b6103a3565b6040516101489190610a3f565b60405180910390f35b610159610629565b6040516101669190610a69565b60405180910390f35b61018960048036038101906101849190610ad7565b61062f565b6040516101969190610a69565b60405180910390f35b6101b960048036038101906101b491906109e4565b610647565b6040516101c69190610a3f565b60405180910390f35b6101e960048036038101906101e49190610b04565b6107e6565b6040516101f69190610a69565b60405180910390f35b61020761080b565b6040516102149190610929565b60405180910390f35b6000805461022a90610b73565b80601f016020809104026020016040519081016040528092919081815260200182805461025690610b73565b80156102a35780601f10610278576101008083540402835291602001916102a3565b820191906000526020600020905b81548152906001019060200180831161028657829003601f168201915b505050505081565b600081600560003373ffffffffffffffffffffffffffffffffffffffff1673ffffffffffffffffffffffffffffffffffffffff16815260200190815260200160002060008573ffffffffffffffffffffffffffffffffffffffff1673ffffffffffffffffffffffffffffffffffffffff168152602001908152602001600020819055508273ffffffffffffffffffffffffffffffffffffffff163373ffffffffffffffffffffffffffffffffffffffff167f8c5be1e5ebec7d5bd14f71427d1e84f3dd0314c0f7b2291e5b200ac8c7c3b9258460405161038b9190610a69565b60405180910390a36001905092915050565b60025481565b6000600460008573ffffffffffffffffffffffffffffffffffffffff1673ffffffffffffffffffffffffffffffffffffffff168152602001908152602001600020548211156103f157600080fd5b600560008573ffffffffffffffffffffffffffffffffffffffff1673ffffffffffffffffffffffffffffffffffffffff16815260200190815260200160002060003373ffffffffffffffffffffffffffffffffffffffff1673ffffffffffffffffffffffffffffffffffffffff1681526020019081526020016000205482111561047a57600080fd5b81600460008573ffffffffffffffffffffffffffffffffffffffff1673ffffffffffffffffffffffffffffffffffffffff16815260200190815260200160002060008282546104c99190610bd3565b9250508190555081600460008673ffffffffffffffffffffffffffffffffffffffff1673ffffffffffffffffffffffffffffffffffffffff168152602001908152602001600020600082825461051f9190610c07565b9250508190555081600560003373ffffffffffffffffffffffffffffffffffffffff1673ffffffffffffffffffffffffffffffffffffffff16815260200190815260200160002060008673ffffffffffffffffffffffffffffffffffffffff1673ffffffffffffffffffffffffffffffffffffffff16815260200190815260200160002060008282546105b29190610c07565b925050819055508273ffffffffffffffffffffffffffffffffffffffff168473ffffffffffffffffffffffffffffffffffffffff167fddf252ad1be2c89b69c2b068fc378daa952ba7f163c4a11628f55a4df523b3ef846040516106169190610a69565b60405180910390a3600190509392505050565b60035481565b60046020528060005260406000206000915090505481565b600081600460003373ffffffffffffffffffffffffffffffffffffffff1673ffffffffffffffffffffffffffffffffffffffff1681526020019081526020016000205410156106cb576040517f08c379a00000000000000000000000000000000000000000000000000000000081526004016106c290610c87565b60405180910390fd5b81600460003373ffffffffffffffffffffffffffffffffffffffff1673ffffffffffffffffffffffffffffffffffffffff168152602001908152602001600020600082825461071a9190610c07565b9250508190555081600460008573ffffffffffffffffffffffffffffffffffffffff1673ffffffffffffffffffffffffffffffffffffffff16815260200190815260200160002060008282546107709190610bd3565b925050819055508273ffffffffffffffffffffffffffffffffffffffff163373ffffffffffffffffffffffffffffffffffffffff167fddf252ad1be2c89b69c2b068fc378daa952ba7f163c4a11628f55a4df523b3ef846040516107d49190610a69565b60405180910390a36001905092915050565b6005602052816000526040600020602052806000526040600020600091509150505481565b6001805461081890610b73565b80601f016020809104026020016040519081016040528092919081815260200182805461084490610b73565b80156108915780601f1061086657610100808354040283529160200191610891565b820191906000526020600020905b81548152906001019060200180831161087457829003601f168201915b505050505081565b600081519050919050565b600082825260208201905092915050565b60005b838110156108d35780820151818401526020810190506108b8565b60008484015250505050565b6000601f19601f8301169050919050565b60006108fb82610899565b61090581856108a4565b93506109158185602086016108b5565b61091e816108df565b840191505092915050565b6000602082019050818103600083015261094381846108f0565b905092915050565b600080fd5b600073ffffffffffffffffffffffffffffffffffffffff82169050919050565b600061097b82610950565b9050919050565b61098b81610970565b811461099657600080fd5b50565b6000813590506109a881610982565b92915050565b6000819050919050565b6109c1816109ae565b81146109cc57600080fd5b50565b6000813590506109de816109b8565b92915050565b600080604083850312156109fb576109fa61094b565b5b6000610a0985828601610999565b9250506020610a1a858286016109cf565b9150509250929050565b60008115159050919050565b610a3981610a24565b82525050565b6000602082019050610a546000830184610a30565b92915050565b610a63816109ae565b82525050565b6000602082019050610a7e6000830184610a5a565b92915050565b600080600060608486031215610a9d57610a9c61094b565b5b6000610aab86828701610999565b9350506020610abc86828701610999565b9250506040610acd868287016109cf565b9150509250925092565b600060208284031215610aed57610aec61094b565b5b6000610afb84828501610999565b91505092915050565b60008060408385031215610b1b57610b1a61094b565b5b6000610b2985828601610999565b9250506020610b3a85828601610999565b9150509250929050565b7f4e487b7100000000000000000000000000000000000000000000000000000000600052602260045260246000fd5b60006002820490506001821680610b8b57607f821691505b602082108103610b9e57610b9d610b44565b5b50919050565b7f4e487b7100000000000000000000000000000000000000000000000000000000600052601160045260246000fd5b6000610bde826109ae565b9150610be9836109ae565b9250828201905080821115610c0157610c00610ba4565b5b92915050565b6000610c12826109ae565b9150610c1d836109ae565b9250828203905081811115610c3557610c34610ba4565b5b92915050565b7f5468652076616c7565206973206c6172676572207468616e2062616c616e6365600082015250565b6000610c716020836108a4565b9150610c7c82610c3b565b602082019050919050565b60006020820190508181036000830152610ca081610c64565b905091905056fea264697066735822122075c1be088056c390ce3fca6c64cee785b35367d7d1e429879540570b48a19fba64736f6c63430008140033",
  "immutableReferences": {},
  "source": "// SPDX-License-Identifier: MIT\npragma solidity >=0.4.22 <0.9.0; \n\ncontract RWD {\n      string public name = \"Reward Token\";\n      string public symbole = \"RWD\";\n      uint256 public totalSupply = 1000000000000000000000000; // 1 million token\n      uint256 public decimals = 18;\n\n      event Transfer(\n            address indexed _from,\n            address indexed _to,\n            uint _value\n      );\n\n      event Approval(\n            address indexed _owner,\n            address indexed _spender,\n            uint _value\n      );\n\n      mapping(address => uint256) public balanceOf;\n      mapping (address => mapping(address => uint256)) public allowance;\n\n\n      constructor () {\n            balanceOf[msg.sender] = totalSupply;\n      }\n\n      function transfer(address _to ,uint256 _value) public returns (bool success) {\n            require(balanceOf[msg.sender] >= _value , \"The value is larger than balance\");\n\n            balanceOf[msg.sender] -= _value;\n            balanceOf[_to] += _value;\n            emit Transfer(msg.sender , _to , _value);\n            return true;\n      }\n\n      function approve(address _spender ,uint256 _value) public returns (bool success) {\n            allowance[msg.sender][_spender] = _value;\n            emit Approval(msg.sender , _spender , _value);\n            return true;\n      }\n\n      function transferFrom(address _from ,address _to ,uint256 _value) public returns (bool success) {\n            require(_value <= balanceOf[_from]);\n            require(_value <= allowance[_from][msg.sender]);\n\n            balanceOf[_to] += _value;\n            balanceOf[_from] -= _value;\n\n            allowance[msg.sender][_from] -= _value;\n\n            emit Transfer(_from , _to , _value);\n            return true;\n      }\n\n}",
  "sourcePath": "D:\\daff\\my-dapp\\contracts\\RWD.sol",
  "compiler": {
    "name": "solc",
    "version": "0.8.20+commit.a1b79de6.Emscripten.clang"
  },
  "schemaVersion": "3.4.14",
  "updatedAt": "2023-06-11T15:36:00.251Z",
  "networkType": "ethereum",
  "devdoc": {
    "kind": "dev",
    "methods": {},
    "version": 1
  },
  "userdoc": {
    "kind": "user",
    "methods": {},
    "version": 1
  }
}