{
  "contractName": "Tether",
  "abi": [
    {
      "inputs": [],
      "stateMutability": "nonpayable",
      "type": "constructor"
    },
    {
      "anonymous": false,
      "inputs": [
        {
          "indexed": true,
          "internalType": "address",
          "name": "_owner",
          "type": "address"
        },
        {
          "indexed": true,
          "internalType": "address",
          "name": "_spender",
          "type": "address"
        },
        {
          "indexed": false,
          "internalType": "uint256",
          "name": "_value",
          "type": "uint256"
        }
      ],
      "name": "Approval",
      "type": "event"
    },
    {
      "anonymous": false,
      "inputs": [
        {
          "indexed": true,
          "internalType": "address",
          "name": "_from",
          "type": "address"
        },
        {
          "indexed": true,
          "internalType": "address",
          "name": "_to",
          "type": "address"
        },
        {
          "indexed": false,
          "internalType": "uint256",
          "name": "_value",
          "type": "uint256"
        }
      ],
      "name": "Transfer",
      "type": "event"
    },
    {
      "inputs": [
        {
          "internalType": "address",
          "name": "",
          "type": "address"
        },
        {
          "internalType": "address",
          "name": "",
          "type": "address"
        }
      ],
      "name": "allowance",
      "outputs": [
        {
          "internalType": "uint256",
          "name": "",
          "type": "uint256"
        }
      ],
      "stateMutability": "view",
      "type": "function",
      "constant": true
    },
    {
      "inputs": [
        {
          "internalType": "address",
          "name": "",
          "type": "address"
        }
      ],
      "name": "balanceOf",
      "outputs": [
        {
          "internalType": "uint256",
          "name": "",
          "type": "uint256"
        }
      ],
      "stateMutability": "view",
      "type": "function",
      "constant": true
    },
    {
      "inputs": [],
      "name": "decimals",
      "outputs": [
        {
          "internalType": "uint256",
          "name": "",
          "type": "uint256"
        }
      ],
      "stateMutability": "view",
      "type": "function",
      "constant": true
    },
    {
      "inputs": [],
      "name": "name",
      "outputs": [
        {
          "internalType": "string",
          "name": "",
          "type": "string"
        }
      ],
      "stateMutability": "view",
      "type": "function",
      "constant": true
    },
    {
      "inputs": [],
      "name": "symbole",
      "outputs": [
        {
          "internalType": "string",
          "name": "",
          "type": "string"
        }
      ],
      "stateMutability": "view",
      "type": "function",
      "constant": true
    },
    {
      "inputs": [],
      "name": "totalSupply",
      "outputs": [
        {
          "internalType": "uint256",
          "name": "",
          "type": "uint256"
        }
      ],
      "stateMutability": "view",
      "type": "function",
      "constant": true
    },
    {
      "inputs": [
        {
          "internalType": "address",
          "name": "_to",
          "type": "address"
        },
        {
          "internalType": "uint256",
          "name": "_value",
          "type": "uint256"
        }
      ],
      "name": "transfer",
      "outputs": [
        {
          "internalType": "bool",
          "name": "success",
          "type": "bool"
        }
      ],
      "stateMutability": "nonpayable",
      "type": "function"
    },
    {
      "inputs": [
        {
          "internalType": "address",
          "name": "_spender",
          "type": "address"
        },
        {
          "internalType": "uint256",
          "name": "_value",
          "type": "uint256"
        }
      ],
      "name": "approve",
      "outputs": [
        {
          "internalType": "bool",
          "name": "success",
          "type": "bool"
        }
      ],
      "stateMutability": "nonpayable",
      "type": "function"
    },
    {
      "inputs": [
        {
          "internalType": "address",
          "name": "_from",
          "type": "address"
        },
        {
          "internalType": "address",
          "name": "_to",
          "type": "address"
        },
        {
          "internalType": "uint256",
          "name": "_value",
          "type": "uint256"
        }
      ],
      "name": "transferFrom",
      "outputs": [
        {
          "internalType": "bool",
          "name": "success",
          "type": "bool"
        }
      ],
      "stateMutability": "nonpayable",
      "type": "function"
    }
  ],
  "bytecode": "0x60806040526040518060400160405280600681526020017f5465746865720000000000000000000000000000000000000000000000000000815250600090816200004a91906200037f565b506040518060400160405280600581526020017f6d55534454000000000000000000000000000000000000000000000000000000815250600190816200009191906200037f565b5069d3c21bcecceda10000006002556012600355348015620000b257600080fd5b50600254600460003373ffffffffffffffffffffffffffffffffffffffff1673ffffffffffffffffffffffffffffffffffffffff1681526020019081526020016000208190555062000466565b600081519050919050565b7f4e487b7100000000000000000000000000000000000000000000000000000000600052604160045260246000fd5b7f4e487b7100000000000000000000000000000000000000000000000000000000600052602260045260246000fd5b600060028204905060018216806200018157607f821691505b60208210810362000197576200019662000139565b5b50919050565b60008190508160005260206000209050919050565b60006020601f8301049050919050565b60008160020a8302905092915050565b600060088302620002047fffffffffffffffffffffffffffffffffffffffffffffffffffffffffffffffff82620001c2565b620002108683620001c2565b95508019841693508086168417925050509392505050565b6000819050919050565b6000819050919050565b60006200025d62000257620002518462000228565b62000232565b62000228565b9050919050565b6000819050919050565b62000279836200023c565b62000291620002888262000264565b848454620001d2565b825550505050565b600090565b620002a862000299565b620002b58184846200026e565b505050565b5b81811015620002dd57620002d16000826200029e565b600181019050620002bb565b5050565b601f8211156200032c57620002f6816200019d565b6200030184620001b2565b8101602085101562000311578190505b620003296200032085620001b2565b830182620002ba565b50505b505050565b60008160020a8304905092915050565b6000620003546000198460080262000331565b1980831691505092915050565b60006200036f838362000341565b9150826002028217905092915050565b6200038a82620000ff565b67ffffffffffffffff811115620003a657620003a56200010a565b5b620003b2825462000168565b620003bf828285620002e1565b600060209050601f831160018114620003f75760008415620003e2578287015190505b620003ee858262000361565b8655506200045e565b601f19841662000407866200019d565b60005b8281101562000431578489015182556001820191506020850194506020810190506200040a565b868310156200045157848901516200044d601f89168262000341565b8355505b6001600288020188555050505b505050505050565b610ecd80620004766000396000f3fe608060405234801561001057600080fd5b50600436106100b0576000357c010000000000000000000000000000000000000000000000000000000090048063313ce56711610083578063313ce5671461015157806370a082311461016f578063a9059cbb1461019f578063dd62ed3e146101cf578063ed6968e7146101ff576100b0565b806306fdde03146100b5578063095ea7b3146100d357806318160ddd1461010357806323b872dd14610121575b600080fd5b6100bd61021d565b6040516100ca9190610a1b565b60405180910390f35b6100ed60048036038101906100e89190610ad6565b6102ab565b6040516100fa9190610b31565b60405180910390f35b61010b61039d565b6040516101189190610b5b565b60405180910390f35b61013b60048036038101906101369190610b76565b6103a3565b6040516101489190610b31565b60405180910390f35b61015961071b565b6040516101669190610b5b565b60405180910390f35b61018960048036038101906101849190610bc9565b610721565b6040516101969190610b5b565b60405180910390f35b6101b960048036038101906101b49190610ad6565b610739565b6040516101c69190610b31565b60405180910390f35b6101e960048036038101906101e49190610bf6565b6108d8565b6040516101f69190610b5b565b60405180910390f35b6102076108fd565b6040516102149190610a1b565b60405180910390f35b6000805461022a90610c65565b80601f016020809104026020016040519081016040528092919081815260200182805461025690610c65565b80156102a35780601f10610278576101008083540402835291602001916102a3565b820191906000526020600020905b81548152906001019060200180831161028657829003601f168201915b505050505081565b600081600560003373ffffffffffffffffffffffffffffffffffffffff1673ffffffffffffffffffffffffffffffffffffffff16815260200190815260200160002060008573ffffffffffffffffffffffffffffffffffffffff1673ffffffffffffffffffffffffffffffffffffffff168152602001908152602001600020819055508273ffffffffffffffffffffffffffffffffffffffff163373ffffffffffffffffffffffffffffffffffffffff167f8c5be1e5ebec7d5bd14f71427d1e84f3dd0314c0f7b2291e5b200ac8c7c3b9258460405161038b9190610b5b565b60405180910390a36001905092915050565b60025481565b6000600460008573ffffffffffffffffffffffffffffffffffffffff1673ffffffffffffffffffffffffffffffffffffffff16815260200190815260200160002054821115610427576040517f08c379a000000000000000000000000000000000000000000000000000000000815260040161041e90610ce2565b60405180910390fd5b600560008573ffffffffffffffffffffffffffffffffffffffff1673ffffffffffffffffffffffffffffffffffffffff16815260200190815260200160002060003373ffffffffffffffffffffffffffffffffffffffff1673ffffffffffffffffffffffffffffffffffffffff168152602001908152602001600020548211156104e6576040517f08c379a00000000000000000000000000000000000000000000000000000000081526004016104dd90610d74565b60405180910390fd5b81600460008573ffffffffffffffffffffffffffffffffffffffff1673ffffffffffffffffffffffffffffffffffffffff16815260200190815260200160002060008282546105359190610dc3565b9250508190555081600460008673ffffffffffffffffffffffffffffffffffffffff1673ffffffffffffffffffffffffffffffffffffffff168152602001908152602001600020600082825461058b9190610df7565b925050819055506000600560003373ffffffffffffffffffffffffffffffffffffffff1673ffffffffffffffffffffffffffffffffffffffff16815260200190815260200160002060008673ffffffffffffffffffffffffffffffffffffffff1673ffffffffffffffffffffffffffffffffffffffff1681526020019081526020016000205411156106ab5781600560003373ffffffffffffffffffffffffffffffffffffffff1673ffffffffffffffffffffffffffffffffffffffff16815260200190815260200160002060008673ffffffffffffffffffffffffffffffffffffffff1673ffffffffffffffffffffffffffffffffffffffff16815260200190815260200160002060008282546106a39190610df7565b925050819055505b8273ffffffffffffffffffffffffffffffffffffffff168473ffffffffffffffffffffffffffffffffffffffff167fddf252ad1be2c89b69c2b068fc378daa952ba7f163c4a11628f55a4df523b3ef846040516107089190610b5b565b60405180910390a3600190509392505050565b60035481565b60046020528060005260406000206000915090505481565b600081600460003373ffffffffffffffffffffffffffffffffffffffff1673ffffffffffffffffffffffffffffffffffffffff1681526020019081526020016000205410156107bd576040517f08c379a00000000000000000000000000000000000000000000000000000000081526004016107b490610e77565b60405180910390fd5b81600460003373ffffffffffffffffffffffffffffffffffffffff1673ffffffffffffffffffffffffffffffffffffffff168152602001908152602001600020600082825461080c9190610df7565b9250508190555081600460008573ffffffffffffffffffffffffffffffffffffffff1673ffffffffffffffffffffffffffffffffffffffff16815260200190815260200160002060008282546108629190610dc3565b925050819055508273ffffffffffffffffffffffffffffffffffffffff163373ffffffffffffffffffffffffffffffffffffffff167fddf252ad1be2c89b69c2b068fc378daa952ba7f163c4a11628f55a4df523b3ef846040516108c69190610b5b565b60405180910390a36001905092915050565b6005602052816000526040600020602052806000526040600020600091509150505481565b6001805461090a90610c65565b80601f016020809104026020016040519081016040528092919081815260200182805461093690610c65565b80156109835780601f1061095857610100808354040283529160200191610983565b820191906000526020600020905b81548152906001019060200180831161096657829003601f168201915b505050505081565b600081519050919050565b600082825260208201905092915050565b60005b838110156109c55780820151818401526020810190506109aa565b60008484015250505050565b6000601f19601f8301169050919050565b60006109ed8261098b565b6109f78185610996565b9350610a078185602086016109a7565b610a10816109d1565b840191505092915050565b60006020820190508181036000830152610a3581846109e2565b905092915050565b600080fd5b600073ffffffffffffffffffffffffffffffffffffffff82169050919050565b6000610a6d82610a42565b9050919050565b610a7d81610a62565b8114610a8857600080fd5b50565b600081359050610a9a81610a74565b92915050565b6000819050919050565b610ab381610aa0565b8114610abe57600080fd5b50565b600081359050610ad081610aaa565b92915050565b60008060408385031215610aed57610aec610a3d565b5b6000610afb85828601610a8b565b9250506020610b0c85828601610ac1565b9150509250929050565b60008115159050919050565b610b2b81610b16565b82525050565b6000602082019050610b466000830184610b22565b92915050565b610b5581610aa0565b82525050565b6000602082019050610b706000830184610b4c565b92915050565b600080600060608486031215610b8f57610b8e610a3d565b5b6000610b9d86828701610a8b565b9350506020610bae86828701610a8b565b9250506040610bbf86828701610ac1565b9150509250925092565b600060208284031215610bdf57610bde610a3d565b5b6000610bed84828501610a8b565b91505092915050565b60008060408385031215610c0d57610c0c610a3d565b5b6000610c1b85828601610a8b565b9250506020610c2c85828601610a8b565b9150509250929050565b7f4e487b7100000000000000000000000000000000000000000000000000000000600052602260045260246000fd5b60006002820490506001821680610c7d57607f821691505b602082108103610c9057610c8f610c36565b5b50919050565b7f46726f6d20706172616d20697320696e73756666656369656e742e0000000000600082015250565b6000610ccc601b83610996565b9150610cd782610c96565b602082019050919050565b60006020820190508181036000830152610cfb81610cbf565b9050919050565b7f4e65656420617070726f76616c20666f722074686973207472616e736163746960008201527f6f6e000000000000000000000000000000000000000000000000000000000000602082015250565b6000610d5e602283610996565b9150610d6982610d02565b604082019050919050565b60006020820190508181036000830152610d8d81610d51565b9050919050565b7f4e487b7100000000000000000000000000000000000000000000000000000000600052601160045260246000fd5b6000610dce82610aa0565b9150610dd983610aa0565b9250828201905080821115610df157610df0610d94565b5b92915050565b6000610e0282610aa0565b9150610e0d83610aa0565b9250828203905081811115610e2557610e24610d94565b5b92915050565b7f4572726f72207768696c65207472616e73666572696e67000000000000000000600082015250565b6000610e61601783610996565b9150610e6c82610e2b565b602082019050919050565b60006020820190508181036000830152610e9081610e54565b905091905056fea264697066735822122057574bde70e739b115ace32e1621a3e384b6d694bc640c672988d083e7b0accd64736f6c63430008140033",
  "immutableReferences": {},
  "source": "// SPDX-License-Identifier: MIT\npragma solidity >=0.4.22 <0.9.0; \n\ncontract Tether {\n      string public name = \"Tether\";\n      string public symbole = \"mUSDT\";\n      uint256 public  totalSupply = 1000000000000000000000000; // 1 million token\n      uint256 public decimals = 18;\n\n      event Transfer(\n            address indexed _from,\n            address indexed _to,\n            uint _value\n      );\n\n      event Approval(\n            address indexed _owner,\n            address indexed _spender,\n            uint _value\n      );\n\n      mapping(address => uint256) public balanceOf;\n      mapping (address => mapping(address => uint256)) public allowance;\n\n\n      constructor () {\n            balanceOf[msg.sender] = totalSupply;\n      }\n\n      function transfer(address _to ,uint256 _value) public returns (bool success) {\n            require(balanceOf[msg.sender] >= _value ,\"Error while transfering\");\n\n            balanceOf[msg.sender] -= _value;\n            balanceOf[_to] += _value;\n            emit Transfer(msg.sender , _to , _value);\n            return true;\n      }\n\n      function approve(address _spender ,uint256 _value) public returns (bool success) {\n            allowance[msg.sender][_spender] = _value;\n            emit Approval(msg.sender , _spender , _value);\n            return true;\n      }\n\n      function transferFrom(address _from ,address _to ,uint256 _value) public returns (bool success) {\n            require(_value <= balanceOf[_from] , \"From param is insuffecient.\");\n            require(_value <= allowance[_from][msg.sender] , \"Need approval for this transaction\");\n\n            balanceOf[_to] += _value;\n            balanceOf[_from] -= _value;\n            if(allowance[msg.sender][_from] > 0){\n            \n                allowance[msg.sender][_from] -= _value;\n            }\n\n            emit Transfer(_from , _to , _value);\n            return true;\n      }\n\n}",
  "sourcePath": "D:\\daff\\my-dapp\\contracts\\Tether.sol",
  "compiler": {
    "name": "solc",
    "version": "0.8.20+commit.a1b79de6.Emscripten.clang"
  },
  "schemaVersion": "3.4.14",
  "updatedAt": "2023-06-11T15:36:00.226Z",
  "networkType": "ethereum",
  "devdoc": {
    "kind": "dev",
    "methods": {},
    "version": 1
  },
  "userdoc": {
    "kind": "user",
    "methods": {},
    "version": 1
  }
}